{
    "contractName": "Fundme",
    "abi": [
        {
            "inputs": [
                {
                    "internalType": "address",
                    "name": "",
                    "type": "address"
                }
            ],
            "name": "addressToAmountFunded",
            "outputs": [
                {
                    "internalType": "uint256",
                    "name": "",
                    "type": "uint256"
                }
            ],
            "stateMutability": "view",
            "type": "function"
        },
        {
            "inputs": [],
            "name": "fund",
            "outputs": [],
            "stateMutability": "payable",
            "type": "function"
        }
    ],
    "bytecode": "608060405234801561001057600080fd5b5061011b806100206000396000f3fe60806040526004361060265760003560e01c80633e47d6f314602b578063b60d4288146066575b600080fd5b348015603657600080fd5b50605460423660046092565b60006020819052908152604090205481565b60405190815260200160405180910390f35b606c606e565b005b3360009081526020819052604081208054349290608b90849060c0565b9091555050565b60006020828403121560a357600080fd5b81356001600160a01b038116811460b957600080fd5b9392505050565b6000821982111560e057634e487b7160e01b600052601160045260246000fd5b50019056fea26469706673582212209a8ee64c65eec89ca3006fdf76408579f68c07ead973fa104c479dd946b5ee2764736f6c634300080a0033",
    "sourcePath": "f:/learning/blockchain/full-blockchain-solidity-course-py/contracts/FundMe.sol",
    "compiler": {
        "name": "solc",
        "version": "0.8.10+commit.fc410830"
    },
    "functionHashes": {
        "addressToAmountFunded(address)": "3e47d6f3",
        "fund()": "b60d4288"
    },
    "gasEstimates": {
        "creation": {
            "codeDepositCost": "56600",
            "executionCost": "105",
            "totalCost": "56705"
        },
        "external": {
            "addressToAmountFunded(address)": "2453",
            "fund()": "24488"
        }
    }
}